{
  "contractName": "StarNotary",
  "abi": [
    {
      "constant": true,
      "inputs": [
        {
          "name": "interfaceId",
          "type": "bytes4"
        }
      ],
      "name": "supportsInterface",
      "outputs": [
        {
          "name": "",
          "type": "bool"
        }
      ],
      "payable": false,
      "stateMutability": "view",
      "type": "function"
    },
    {
      "constant": false,
      "inputs": [
        {
          "name": "from",
          "type": "address"
        },
        {
          "name": "to",
          "type": "address"
        },
        {
          "name": "tokenId",
          "type": "uint256"
        }
      ],
      "name": "transferFrom",
      "outputs": [],
      "payable": false,
      "stateMutability": "nonpayable",
      "type": "function"
    },
    {
      "constant": true,
      "inputs": [
        {
          "name": "",
          "type": "bytes32"
        }
      ],
      "name": "savedTokens",
      "outputs": [
        {
          "name": "",
          "type": "bool"
        }
      ],
      "payable": false,
      "stateMutability": "view",
      "type": "function"
    },
    {
      "constant": true,
      "inputs": [
        {
          "name": "owner",
          "type": "address"
        }
      ],
      "name": "balanceOf",
      "outputs": [
        {
          "name": "",
          "type": "uint256"
        }
      ],
      "payable": false,
      "stateMutability": "view",
      "type": "function"
    },
    {
      "anonymous": false,
      "inputs": [
        {
          "indexed": false,
          "name": "name",
          "type": "string"
        },
        {
          "indexed": false,
          "name": "story",
          "type": "string"
        },
        {
          "indexed": false,
          "name": "dec",
          "type": "string"
        },
        {
          "indexed": false,
          "name": "mag",
          "type": "string"
        },
        {
          "indexed": false,
          "name": "cent",
          "type": "string"
        }
      ],
      "name": "starCreated",
      "type": "event"
    },
    {
      "anonymous": false,
      "inputs": [
        {
          "indexed": true,
          "name": "from",
          "type": "address"
        },
        {
          "indexed": true,
          "name": "to",
          "type": "address"
        },
        {
          "indexed": true,
          "name": "tokenId",
          "type": "uint256"
        }
      ],
      "name": "Transfer",
      "type": "event"
    },
    {
      "anonymous": false,
      "inputs": [
        {
          "indexed": true,
          "name": "owner",
          "type": "address"
        },
        {
          "indexed": true,
          "name": "approved",
          "type": "address"
        },
        {
          "indexed": true,
          "name": "tokenId",
          "type": "uint256"
        }
      ],
      "name": "Approval",
      "type": "event"
    },
    {
      "anonymous": false,
      "inputs": [
        {
          "indexed": true,
          "name": "owner",
          "type": "address"
        },
        {
          "indexed": true,
          "name": "operator",
          "type": "address"
        },
        {
          "indexed": false,
          "name": "approved",
          "type": "bool"
        }
      ],
      "name": "ApprovalForAll",
      "type": "event"
    },
    {
      "constant": false,
      "inputs": [
        {
          "name": "_name",
          "type": "string"
        },
        {
          "name": "_story",
          "type": "string"
        },
        {
          "name": "_dec",
          "type": "string"
        },
        {
          "name": "_mag",
          "type": "string"
        },
        {
          "name": "_cent",
          "type": "string"
        },
        {
          "name": "_tokenId",
          "type": "uint256"
        }
      ],
      "name": "createStar",
      "outputs": [],
      "payable": false,
      "stateMutability": "nonpayable",
      "type": "function"
    },
    {
      "constant": true,
      "inputs": [
        {
          "name": "starCoordinates",
          "type": "bytes32"
        }
      ],
      "name": "checkIfStarExist",
      "outputs": [
        {
          "name": "",
          "type": "bool"
        }
      ],
      "payable": false,
      "stateMutability": "view",
      "type": "function"
    },
    {
      "constant": false,
      "inputs": [
        {
          "name": "_tokenId",
          "type": "uint256"
        },
        {
          "name": "_price",
          "type": "uint256"
        }
      ],
      "name": "putStarUpForSale",
      "outputs": [],
      "payable": false,
      "stateMutability": "nonpayable",
      "type": "function"
    },
    {
      "constant": false,
      "inputs": [
        {
          "name": "_tokenId",
          "type": "uint256"
        }
      ],
      "name": "buyStar",
      "outputs": [],
      "payable": true,
      "stateMutability": "payable",
      "type": "function"
    },
    {
      "constant": false,
      "inputs": [
        {
          "name": "_to",
          "type": "address"
        },
        {
          "name": "_tokenId",
          "type": "uint256"
        }
      ],
      "name": "mint",
      "outputs": [],
      "payable": false,
      "stateMutability": "nonpayable",
      "type": "function"
    },
    {
      "constant": false,
      "inputs": [
        {
          "name": "_to",
          "type": "address"
        },
        {
          "name": "_tokenId",
          "type": "uint256"
        }
      ],
      "name": "approve",
      "outputs": [],
      "payable": false,
      "stateMutability": "nonpayable",
      "type": "function"
    },
    {
      "constant": false,
      "inputs": [
        {
          "name": "from",
          "type": "address"
        },
        {
          "name": "to",
          "type": "address"
        },
        {
          "name": "tokenId",
          "type": "uint256"
        },
        {
          "name": "_data",
          "type": "bytes"
        }
      ],
      "name": "safeTransferFrom",
      "outputs": [],
      "payable": false,
      "stateMutability": "nonpayable",
      "type": "function"
    },
    {
      "constant": false,
      "inputs": [
        {
          "name": "_from",
          "type": "address"
        },
        {
          "name": "_to",
          "type": "address"
        },
        {
          "name": "_tokenId",
          "type": "uint256"
        }
      ],
      "name": "safeTransferFrom",
      "outputs": [],
      "payable": false,
      "stateMutability": "nonpayable",
      "type": "function"
    },
    {
      "constant": false,
      "inputs": [
        {
          "name": "_to",
          "type": "address"
        },
        {
          "name": "_approved",
          "type": "bool"
        }
      ],
      "name": "setApprovalForAll",
      "outputs": [],
      "payable": false,
      "stateMutability": "nonpayable",
      "type": "function"
    },
    {
      "constant": true,
      "inputs": [
        {
          "name": "_tokenId",
          "type": "uint256"
        }
      ],
      "name": "getApproved",
      "outputs": [
        {
          "name": "",
          "type": "address"
        }
      ],
      "payable": false,
      "stateMutability": "view",
      "type": "function"
    },
    {
      "constant": true,
      "inputs": [
        {
          "name": "_owner",
          "type": "address"
        },
        {
          "name": "_operator",
          "type": "address"
        }
      ],
      "name": "isApprovedForAll",
      "outputs": [
        {
          "name": "",
          "type": "bool"
        }
      ],
      "payable": false,
      "stateMutability": "view",
      "type": "function"
    },
    {
      "constant": true,
      "inputs": [
        {
          "name": "_tokenId",
          "type": "uint256"
        }
      ],
      "name": "ownerOf",
      "outputs": [
        {
          "name": "",
          "type": "address"
        }
      ],
      "payable": false,
      "stateMutability": "view",
      "type": "function"
    },
    {
      "constant": true,
      "inputs": [
        {
          "name": "_tokenId",
          "type": "uint256"
        }
      ],
      "name": "starsForSale",
      "outputs": [
        {
          "name": "",
          "type": "uint256"
        }
      ],
      "payable": false,
      "stateMutability": "view",
      "type": "function"
    },
    {
      "constant": true,
      "inputs": [
        {
          "name": "_tokenId",
          "type": "uint256"
        }
      ],
      "name": "tokenIdToStarInfo",
      "outputs": [
        {
          "name": "",
          "type": "string"
        },
        {
          "name": "",
          "type": "string"
        },
        {
          "name": "",
          "type": "string"
        },
        {
          "name": "",
          "type": "string"
        },
        {
          "name": "",
          "type": "string"
        }
      ],
      "payable": false,
      "stateMutability": "view",
      "type": "function"
    }
  ],
  "bytecode": "0x6080604052620000416301ffc9a77c01000000000000000000000000000000000000000000000000000000000262000084640100000000026401000000009004565b6200007e6380ac58cd7c01000000000000000000000000000000000000000000000000000000000262000084640100000000026401000000009004565b62000142565b63ffffffff7c010000000000000000000000000000000000000000000000000000000002817bffffffffffffffffffffffffffffffffffffffffffffffffffffffff191614151515620000d657600080fd5b6001600080837bffffffffffffffffffffffffffffffffffffffffffffffffffffffff19167bffffffffffffffffffffffffffffffffffffffffffffffffffffffff1916815260200190815260200160002060006101000a81548160ff02191690831515021790555050565b612a3980620001526000396000f3006080604052600436106100fc576000357c0100000000000000000000000000000000000000000000000000000000900463ffffffff16806301ffc9a7146101015780630564b13014610165578063081812fc146101a6578063095ea7b3146102135780631967fd981461026057806323b872dd146104b6578063253d6390146105235780632f1c34ef1461056c578063316a43611461058c57806340c10f19146105c357806342842e0e1461061057806349acf0341461067d5780636352211e146106c657806370a0823114610733578063a22cb4651461078a578063b250ced0146107d9578063b88d4fde14610964578063e985e9c514610a17575b600080fd5b34801561010d57600080fd5b5061014b60048036038101908080357bffffffffffffffffffffffffffffffffffffffffffffffffffffffff19169060200190929190505050610a92565b604051808215151515815260200191505060405180910390f35b34801561017157600080fd5b5061019060048036038101908080359060200190929190505050610af9565b6040518082815260200191505060405180910390f35b3480156101b257600080fd5b506101d160048036038101908080359060200190929190505050610b16565b604051808273ffffffffffffffffffffffffffffffffffffffff1673ffffffffffffffffffffffffffffffffffffffff16815260200191505060405180910390f35b34801561021f57600080fd5b5061025e600480360381019080803573ffffffffffffffffffffffffffffffffffffffff16906020019092919080359060200190929190505050610bce565b005b34801561026c57600080fd5b5061028b60048036038101908080359060200190929190505050610d70565b60405180806020018060200180602001806020018060200186810386528b818151815260200191508051906020019080838360005b838110156102db5780820151818401526020810190506102c0565b50505050905090810190601f1680156103085780820380516001836020036101000a031916815260200191505b5086810385528a818151815260200191508051906020019080838360005b83811015610341578082015181840152602081019050610326565b50505050905090810190601f16801561036e5780820380516001836020036101000a031916815260200191505b50868103845289818151815260200191508051906020019080838360005b838110156103a757808201518184015260208101905061038c565b50505050905090810190601f1680156103d45780820380516001836020036101000a031916815260200191505b50868103835288818151815260200191508051906020019080838360005b8381101561040d5780820151818401526020810190506103f2565b50505050905090810190601f16801561043a5780820380516001836020036101000a031916815260200191505b50868103825287818151815260200191508051906020019080838360005b83811015610473578082015181840152602081019050610458565b50505050905090810190601f1680156104a05780820380516001836020036101000a031916815260200191505b509a505050505050505050505060405180910390f35b3480156104c257600080fd5b50610521600480360381019080803573ffffffffffffffffffffffffffffffffffffffff169060200190929190803573ffffffffffffffffffffffffffffffffffffffff169060200190929190803590602001909291905050506111ce565b005b34801561052f57600080fd5b50610552600480360381019080803560001916906020019092919050505061129d565b604051808215151515815260200191505060405180910390f35b61058a600480360381019080803590602001909291905050506112d0565b005b34801561059857600080fd5b506105c16004803603810190808035906020019092919080359060200190929190505050611478565b005b3480156105cf57600080fd5b5061060e600480360381019080803573ffffffffffffffffffffffffffffffffffffffff16906020019092919080359060200190929190505050611577565b005b34801561061c57600080fd5b5061067b600480360381019080803573ffffffffffffffffffffffffffffffffffffffff169060200190929190803573ffffffffffffffffffffffffffffffffffffffff16906020019092919080359060200190929190505050611668565b005b34801561068957600080fd5b506106ac600480360381019080803560001916906020019092919050505061183f565b604051808215151515815260200191505060405180910390f35b3480156106d257600080fd5b506106f16004803603810190808035906020019092919050505061185f565b604051808273ffffffffffffffffffffffffffffffffffffffff1673ffffffffffffffffffffffffffffffffffffffff16815260200191505060405180910390f35b34801561073f57600080fd5b50610774600480360381019080803573ffffffffffffffffffffffffffffffffffffffff169060200190929190505050611876565b6040518082815260200191505060405180910390f35b34801561079657600080fd5b506107d7600480360381019080803573ffffffffffffffffffffffffffffffffffffffff1690602001909291908035151590602001909291905050506118fa565b005b3480156107e557600080fd5b50610962600480360381019080803590602001908201803590602001908080601f0160208091040260200160405190810160405280939291908181526020018383808284378201915050505050509192919290803590602001908201803590602001908080601f0160208091040260200160405190810160405280939291908181526020018383808284378201915050505050509192919290803590602001908201803590602001908080601f0160208091040260200160405190810160405280939291908181526020018383808284378201915050505050509192919290803590602001908201803590602001908080601f0160208091040260200160405190810160405280939291908181526020018383808284378201915050505050509192919290803590602001908201803590602001908080601f0160208091040260200160405190810160405280939291908181526020018383808284378201915050505050509192919290803590602001909291905050506119bd565b005b34801561097057600080fd5b50610a15600480360381019080803573ffffffffffffffffffffffffffffffffffffffff169060200190929190803573ffffffffffffffffffffffffffffffffffffffff16906020019092919080359060200190929190803590602001908201803590602001908080601f0160208091040260200160405190810160405280939291908181526020018383808284378201915050505050509192919290505050611de1565b005b348015610a2357600080fd5b50610a78600480360381019080803573ffffffffffffffffffffffffffffffffffffffff169060200190929190803573ffffffffffffffffffffffffffffffffffffffff169060200190929190505050611e09565b604051808215151515815260200191505060405180910390f35b6000806000837bffffffffffffffffffffffffffffffffffffffffffffffffffffffff19167bffffffffffffffffffffffffffffffffffffffffffffffffffffffff1916815260200190815260200160002060009054906101000a900460ff169050919050565b600060076000838152602001908152602001600020549050919050565b6000803073ffffffffffffffffffffffffffffffffffffffff1663081812fc846040518263ffffffff167c010000000000000000000000000000000000000000000000000000000002815260040180828152602001915050602060405180830381600087803b158015610b8857600080fd5b505af1158015610b9c573d6000803e3d6000fd5b505050506040513d6020811015610bb257600080fd5b8101908080519060200190929190505050905080915050919050565b3373ffffffffffffffffffffffffffffffffffffffff163073ffffffffffffffffffffffffffffffffffffffff16636352211e836040518263ffffffff167c010000000000000000000000000000000000000000000000000000000002815260040180828152602001915050602060405180830381600087803b158015610c5457600080fd5b505af1158015610c68573d6000803e3d6000fd5b505050506040513d6020811015610c7e57600080fd5b810190808051906020019092919050505073ffffffffffffffffffffffffffffffffffffffff16141515610cb157600080fd5b3073ffffffffffffffffffffffffffffffffffffffff1663095ea7b383836040518363ffffffff167c0100000000000000000000000000000000000000000000000000000000028152600401808373ffffffffffffffffffffffffffffffffffffffff1673ffffffffffffffffffffffffffffffffffffffff16815260200182815260200192505050600060405180830381600087803b158015610d5457600080fd5b505af1158015610d68573d6000803e3d6000fd5b505050505050565b6060806060806060610d80612938565b6060806060806060600560008d815260200190815260200160002060a06040519081016040529081600082018054600181600116156101000203166002900480601f016020809104026020016040519081016040528092919081815260200182805460018160011615610100020316600290048015610e405780601f10610e1557610100808354040283529160200191610e40565b820191906000526020600020905b815481529060010190602001808311610e2357829003601f168201915b50505050508152602001600182018054600181600116156101000203166002900480601f016020809104026020016040519081016040528092919081815260200182805460018160011615610100020316600290048015610ee25780601f10610eb757610100808354040283529160200191610ee2565b820191906000526020600020905b815481529060010190602001808311610ec557829003601f168201915b50505050508152602001600282018054600181600116156101000203166002900480601f016020809104026020016040519081016040528092919081815260200182805460018160011615610100020316600290048015610f845780601f10610f5957610100808354040283529160200191610f84565b820191906000526020600020905b815481529060010190602001808311610f6757829003601f168201915b50505050508152602001600382018054600181600116156101000203166002900480601f0160208091040260200160405190810160405280929190818152602001828054600181600116156101000203166002900480156110265780601f10610ffb57610100808354040283529160200191611026565b820191906000526020600020905b81548152906001019060200180831161100957829003601f168201915b50505050508152602001600482018054600181600116156101000203166002900480601f0160208091040260200160405190810160405280929190818152602001828054600181600116156101000203166002900480156110c85780601f1061109d576101008083540402835291602001916110c8565b820191906000526020600020905b8154815290600101906020018083116110ab57829003601f168201915b505050505081525050955085600001519450856020015193506111246040805190810160405280600381526020017f72615f00000000000000000000000000000000000000000000000000000000008152508760800151611f22565b92506111696040805190810160405280600481526020017f6465635f000000000000000000000000000000000000000000000000000000008152508760400151611f22565b91506111ae6040805190810160405280600481526020017f6d61675f000000000000000000000000000000000000000000000000000000008152508760600151611f22565b905084848484849a509a509a509a509a5050505050505091939590929450565b6111d83382611ff3565b15156111e357600080fd5b600073ffffffffffffffffffffffffffffffffffffffff168273ffffffffffffffffffffffffffffffffffffffff161415151561121f57600080fd5b6112298382612088565b611233838261218b565b61123d82826122ba565b808273ffffffffffffffffffffffffffffffffffffffff168473ffffffffffffffffffffffffffffffffffffffff167fddf252ad1be2c89b69c2b068fc378daa952ba7f163c4a11628f55a4df523b3ef60405160405180910390a4505050565b600060066000836000191660001916815260200190815260200160002060009054906101000a900460ff16159050919050565b600080600060076000858152602001908152602001600020541115156112f557600080fd5b600760008481526020019081526020016000205491503073ffffffffffffffffffffffffffffffffffffffff16636352211e846040518263ffffffff167c010000000000000000000000000000000000000000000000000000000002815260040180828152602001915050602060405180830381600087803b15801561137a57600080fd5b505af115801561138e573d6000803e3d6000fd5b505050506040513d60208110156113a457600080fd5b810190808051906020019092919050505090508134101515156113c657600080fd5b6113d0818461218b565b6113da33846122ba565b8073ffffffffffffffffffffffffffffffffffffffff166108fc839081150290604051600060405180830381858888f19350505050158015611420573d6000803e3d6000fd5b5081341115611473573373ffffffffffffffffffffffffffffffffffffffff166108fc8334039081150290604051600060405180830381858888f19350505050158015611471573d6000803e3d6000fd5b505b505050565b3373ffffffffffffffffffffffffffffffffffffffff163073ffffffffffffffffffffffffffffffffffffffff16636352211e846040518263ffffffff167c010000000000000000000000000000000000000000000000000000000002815260040180828152602001915050602060405180830381600087803b1580156114fe57600080fd5b505af1158015611512573d6000803e3d6000fd5b505050506040513d602081101561152857600080fd5b810190808051906020019092919050505073ffffffffffffffffffffffffffffffffffffffff1614151561155b57600080fd5b8060076000848152602001908152602001600020819055505050565b3373ffffffffffffffffffffffffffffffffffffffff163073ffffffffffffffffffffffffffffffffffffffff16636352211e836040518263ffffffff167c010000000000000000000000000000000000000000000000000000000002815260040180828152602001915050602060405180830381600087803b1580156115fd57600080fd5b505af1158015611611573d6000803e3d6000fd5b505050506040513d602081101561162757600080fd5b810190808051906020019092919050505073ffffffffffffffffffffffffffffffffffffffff1614151561165a57600080fd5b6116648282612414565b5050565b3373ffffffffffffffffffffffffffffffffffffffff163073ffffffffffffffffffffffffffffffffffffffff16636352211e836040518263ffffffff167c010000000000000000000000000000000000000000000000000000000002815260040180828152602001915050602060405180830381600087803b1580156116ee57600080fd5b505af1158015611702573d6000803e3d6000fd5b505050506040513d602081101561171857600080fd5b810190808051906020019092919050505073ffffffffffffffffffffffffffffffffffffffff1614151561174b57600080fd5b3073ffffffffffffffffffffffffffffffffffffffff166342842e0e8484846040518463ffffffff167c0100000000000000000000000000000000000000000000000000000000028152600401808473ffffffffffffffffffffffffffffffffffffffff1673ffffffffffffffffffffffffffffffffffffffff1681526020018373ffffffffffffffffffffffffffffffffffffffff1673ffffffffffffffffffffffffffffffffffffffff1681526020018281526020019350505050600060405180830381600087803b15801561182257600080fd5b505af1158015611836573d6000803e3d6000fd5b50505050505050565b60066020528060005260406000206000915054906101000a900460ff1681565b60008061186b836124ba565b905080915050919050565b60008073ffffffffffffffffffffffffffffffffffffffff168273ffffffffffffffffffffffffffffffffffffffff16141515156118b357600080fd5b600360008373ffffffffffffffffffffffffffffffffffffffff1673ffffffffffffffffffffffffffffffffffffffff168152602001908152602001600020549050919050565b3073ffffffffffffffffffffffffffffffffffffffff1663a22cb46583836040518363ffffffff167c0100000000000000000000000000000000000000000000000000000000028152600401808373ffffffffffffffffffffffffffffffffffffffff1673ffffffffffffffffffffffffffffffffffffffff1681526020018215151515815260200192505050600060405180830381600087803b1580156119a157600080fd5b505af11580156119b5573d6000803e3d6000fd5b505050505050565b6119c5612938565b600060a0604051908101604052808981526020018881526020018781526020018681526020018581525091506119fc868686612538565b9050611a078161129d565b1515611aa1576040517f08c379a00000000000000000000000000000000000000000000000000000000081526004018080602001828103825260298152602001807f7468657365207374617220636f6f7264696e617465732061726520616c72656181526020017f647920696e20757365000000000000000000000000000000000000000000000081525060400191505060405180910390fd5b81600560008581526020019081526020016000206000820151816000019080519060200190611ad1929190612968565b506020820151816001019080519060200190611aee929190612968565b506040820151816002019080519060200190611b0b929190612968565b506060820151816003019080519060200190611b28929190612968565b506080820151816004019080519060200190611b45929190612968565b50905050600160066000836000191660001916815260200190815260200160002060006101000a81548160ff021916908315150217905550611b873384612414565b7fa2cd4c621c816637046d606456301932bc0ead772f845c1d84da6e51144941af888888888860405180806020018060200180602001806020018060200186810386528b818151815260200191508051906020019080838360005b83811015611bfd578082015181840152602081019050611be2565b50505050905090810190601f168015611c2a5780820380516001836020036101000a031916815260200191505b5086810385528a818151815260200191508051906020019080838360005b83811015611c63578082015181840152602081019050611c48565b50505050905090810190601f168015611c905780820380516001836020036101000a031916815260200191505b50868103845289818151815260200191508051906020019080838360005b83811015611cc9578082015181840152602081019050611cae565b50505050905090810190601f168015611cf65780820380516001836020036101000a031916815260200191505b50868103835288818151815260200191508051906020019080838360005b83811015611d2f578082015181840152602081019050611d14565b50505050905090810190601f168015611d5c5780820380516001836020036101000a031916815260200191505b50868103825287818151815260200191508051906020019080838360005b83811015611d95578082015181840152602081019050611d7a565b50505050905090810190601f168015611dc25780820380516001836020036101000a031916815260200191505b509a505050505050505050505060405180910390a15050505050505050565b611dec8484846111ce565b611df8848484846126c1565b1515611e0357600080fd5b50505050565b6000803073ffffffffffffffffffffffffffffffffffffffff1663e985e9c585856040518363ffffffff167c0100000000000000000000000000000000000000000000000000000000028152600401808373ffffffffffffffffffffffffffffffffffffffff1673ffffffffffffffffffffffffffffffffffffffff1681526020018273ffffffffffffffffffffffffffffffffffffffff1673ffffffffffffffffffffffffffffffffffffffff16815260200192505050602060405180830381600087803b158015611edb57600080fd5b505af1158015611eef573d6000803e3d6000fd5b505050506040513d6020811015611f0557600080fd5b810190808051906020019092919050505090508091505092915050565b60608083836040516020018083805190602001908083835b602083101515611f5f5780518252602082019150602081019050602083039250611f3a565b6001836020036101000a03801982511681845116808217855250505050505090500182805190602001908083835b602083101515611fb25780518252602082019150602081019050602083039250611f8d565b6001836020036101000a0380198251168184511680821785525050505050509050019250505060405160208183030381529060405290508091505092915050565b600080611fff8361185f565b90508073ffffffffffffffffffffffffffffffffffffffff168473ffffffffffffffffffffffffffffffffffffffff16148061206e57508373ffffffffffffffffffffffffffffffffffffffff1661205684610b16565b73ffffffffffffffffffffffffffffffffffffffff16145b8061207f575061207e8185611e09565b5b91505092915050565b8173ffffffffffffffffffffffffffffffffffffffff166120a88261185f565b73ffffffffffffffffffffffffffffffffffffffff161415156120ca57600080fd5b600073ffffffffffffffffffffffffffffffffffffffff166002600083815260200190815260200160002060009054906101000a900473ffffffffffffffffffffffffffffffffffffffff1673ffffffffffffffffffffffffffffffffffffffff161415156121875760006002600083815260200190815260200160002060006101000a81548173ffffffffffffffffffffffffffffffffffffffff021916908373ffffffffffffffffffffffffffffffffffffffff1602179055505b5050565b8173ffffffffffffffffffffffffffffffffffffffff166121ab8261185f565b73ffffffffffffffffffffffffffffffffffffffff161415156121cd57600080fd5b6122206001600360008573ffffffffffffffffffffffffffffffffffffffff1673ffffffffffffffffffffffffffffffffffffffff168152602001908152602001600020546128e390919063ffffffff16565b600360008473ffffffffffffffffffffffffffffffffffffffff1673ffffffffffffffffffffffffffffffffffffffff1681526020019081526020016000208190555060006001600083815260200190815260200160002060006101000a81548173ffffffffffffffffffffffffffffffffffffffff021916908373ffffffffffffffffffffffffffffffffffffffff1602179055505050565b600073ffffffffffffffffffffffffffffffffffffffff166001600083815260200190815260200160002060009054906101000a900473ffffffffffffffffffffffffffffffffffffffff1673ffffffffffffffffffffffffffffffffffffffff1614151561232857600080fd5b816001600083815260200190815260200160002060006101000a81548173ffffffffffffffffffffffffffffffffffffffff021916908373ffffffffffffffffffffffffffffffffffffffff1602179055506123cd6001600360008573ffffffffffffffffffffffffffffffffffffffff1673ffffffffffffffffffffffffffffffffffffffff1681526020019081526020016000205461290490919063ffffffff16565b600360008473ffffffffffffffffffffffffffffffffffffffff1673ffffffffffffffffffffffffffffffffffffffff168152602001908152602001600020819055505050565b600073ffffffffffffffffffffffffffffffffffffffff168273ffffffffffffffffffffffffffffffffffffffff161415151561245057600080fd5b61245a82826122ba565b808273ffffffffffffffffffffffffffffffffffffffff16600073ffffffffffffffffffffffffffffffffffffffff167fddf252ad1be2c89b69c2b068fc378daa952ba7f163c4a11628f55a4df523b3ef60405160405180910390a45050565b6000806001600084815260200190815260200160002060009054906101000a900473ffffffffffffffffffffffffffffffffffffffff169050600073ffffffffffffffffffffffffffffffffffffffff168173ffffffffffffffffffffffffffffffffffffffff161415151561252f57600080fd5b80915050919050565b6000808484846040516020018084805190602001908083835b6020831015156125765780518252602082019150602081019050602083039250612551565b6001836020036101000a03801982511681845116808217855250505050505090500183805190602001908083835b6020831015156125c957805182526020820191506020810190506020830392506125a4565b6001836020036101000a03801982511681845116808217855250505050505090500182805190602001908083835b60208310151561261c57805182526020820191506020810190506020830392506125f7565b6001836020036101000a03801982511681845116808217855250505050505090500193505050506040516020818303038152906040526040518082805190602001908083835b6020831015156126875780518252602082019150602081019050602083039250612662565b6001836020036101000a03801982511681845116808217855250505050505090500191505060405180910390209050809150509392505050565b6000806126e38573ffffffffffffffffffffffffffffffffffffffff16612925565b15156126f257600191506128da565b8473ffffffffffffffffffffffffffffffffffffffff1663150b7a02338887876040518563ffffffff167c0100000000000000000000000000000000000000000000000000000000028152600401808573ffffffffffffffffffffffffffffffffffffffff1673ffffffffffffffffffffffffffffffffffffffff1681526020018473ffffffffffffffffffffffffffffffffffffffff1673ffffffffffffffffffffffffffffffffffffffff16815260200183815260200180602001828103825283818151815260200191508051906020019080838360005b838110156127e75780820151818401526020810190506127cc565b50505050905090810190601f1680156128145780820380516001836020036101000a031916815260200191505b5095505050505050602060405180830381600087803b15801561283657600080fd5b505af115801561284a573d6000803e3d6000fd5b505050506040513d602081101561286057600080fd5b8101908080519060200190929190505050905063150b7a027c0100000000000000000000000000000000000000000000000000000000027bffffffffffffffffffffffffffffffffffffffffffffffffffffffff1916817bffffffffffffffffffffffffffffffffffffffffffffffffffffffff19161491505b50949350505050565b6000808383111515156128f557600080fd5b82840390508091505092915050565b600080828401905083811015151561291b57600080fd5b8091505092915050565b600080823b905060008111915050919050565b60a06040519081016040528060608152602001606081526020016060815260200160608152602001606081525090565b828054600181600116156101000203166002900490600052602060002090601f016020900481019282601f106129a957805160ff19168380011785556129d7565b828001600101855582156129d7579182015b828111156129d65782518255916020019190600101906129bb565b5b5090506129e491906129e8565b5090565b612a0a91905b80821115612a065760008160009055506001016129ee565b5090565b905600a165627a7a72305820a1afd0db29bbdce2fadc15e47284ab4510900af85b278fd30f944370884d89e00029",
  "source": "pragma solidity ^ 0.4 .23;\r\n\r\nimport '/openzeppelin-solidity/contracts/token/ERC721/ERC721.sol';\r\n\r\ncontract StarNotary is ERC721 {\r\n\r\n\tstruct Star {\r\n\t\tstring name;\r\n\t\tstring story;\r\n\t\tstring dec;\r\n\t\tstring mag;\r\n\t\tstring cent;\r\n\t}\r\n\r\nevent starCreated(\r\n       string name,\r\n\t\tstring story,\r\n\t\tstring dec,\r\n\t\tstring mag,\r\n\t\tstring cent\r\n    );\r\n\t\r\n\tmapping(uint256 => Star) public tokenIdToStarInfo;\t\r\n\tmapping(bytes32 => bool) public savedTokens;\r\n    mapping(uint256 => uint256) public starsForSale;\r\n\r\n\tfunction createStar(string _name, string _story, string _dec, string _mag, string _cent, uint256 _tokenId) public {\r\n\t\tStar memory newStar = Star(_name, _story, _dec, _mag, _cent);\r\n\t\tbytes32 starCoordinates = concatenateStarCoordinates(_dec, _mag, _cent);\r\n\r\n\t\trequire(checkIfStarExist(starCoordinates), \"these star coordinates are already in use\");\r\n\r\n\t\ttokenIdToStarInfo[_tokenId] = newStar;\r\n\t\tsavedTokens[starCoordinates] = true;\t\r\n\t\t_mint(msg.sender, _tokenId);\r\n\t\temit starCreated(_name, _story, _dec,  _mag, _cent);\t\r\n\t}\r\n\r\n\tfunction checkIfStarExist(bytes32 starCoordinates) public view returns(bool) {\r\n\t\treturn !savedTokens[starCoordinates];\r\n\t}\r\n\r\n\tfunction concatenateStarCoordinates(string _dec, string _mag, string _cent) private pure returns(bytes32) {\r\n\t\tbytes32 starCoordinates = keccak256(abi.encodePacked(_dec, _mag, _cent));\r\n\t\treturn starCoordinates;\r\n\t}\r\n\r\n\tfunction putStarUpForSale(uint256 _tokenId, uint256 _price) public {\r\n\t\trequire(this.ownerOf(_tokenId) == msg.sender);\r\n\r\n\t\tstarsForSale[_tokenId] = _price;        \r\n\t}\r\n\r\n\tfunction buyStar(uint256 _tokenId) public payable {\r\n\t\t require(starsForSale[_tokenId] > 0);\r\n\r\n\t\t uint256 starCost = starsForSale[_tokenId];\r\n\t\t address starOwner = this.ownerOf(_tokenId);\r\n\t\t require(msg.value >= starCost);\r\n\r\n\t\t _removeTokenFrom(starOwner, _tokenId);\r\n\t\t _addTokenTo(msg.sender, _tokenId);\r\n\r\n\t\t starOwner.transfer(starCost);\r\n\r\n\t\tif (msg.value > starCost) {\r\n\t\t\tmsg.sender.transfer(msg.value - starCost);\r\n\t\t}\r\n\t}\r\n\r\n\tfunction mint(address _to, uint256 _tokenId) public {\r\n\t\trequire(this.ownerOf(_tokenId) == msg.sender);\r\n\t\tsuper._mint(_to, _tokenId);\r\n\t}\r\n\r\n\tfunction approve(address _to, uint256 _tokenId) public {\r\n\t\trequire(this.ownerOf(_tokenId) == msg.sender);\r\n\t\tthis.approve(_to, _tokenId);\r\n\t}\r\n\r\n\tfunction safeTransferFrom(address _from, address _to, uint256 _tokenId) public {\r\n\r\n\t\trequire(this.ownerOf(_tokenId) == msg.sender);\r\n\t\tthis.safeTransferFrom(_from, _to, _tokenId);\r\n\t}\r\n\r\n\r\n\tfunction setApprovalForAll(address _to, bool _approved) public {\r\n\t\tthis.setApprovalForAll(_to, _approved);\r\n\t}\r\n\r\n\tfunction getApproved(uint256 _tokenId) public view returns(address) {\r\n\t\taddress approvedAddress = this.getApproved(_tokenId);\r\n\t\treturn approvedAddress;\r\n\t}\r\n\r\n\tfunction isApprovedForAll(address _owner, address _operator) public view returns(bool) {\r\n\t\tbool isApproved = this.isApprovedForAll(_owner, _operator);\r\n\t\treturn isApproved;\r\n\t}\r\n\r\n\tfunction ownerOf(uint256 _tokenId) public view returns(address) {\r\n\t\taddress owner = super.ownerOf(_tokenId);\r\n\t\treturn owner;\r\n\t}\r\n\r\n    function starsForSale(uint256 _tokenId) public view returns(uint256) {\t\t\r\n\t\treturn starsForSale[_tokenId];\r\n\t}\r\n\r\n      function tokenIdToStarInfo(uint256 _tokenId) public view returns( string, string, string, string, string) {\r\n\t\tStar memory star = tokenIdToStarInfo[_tokenId];\r\n\t\tstring memory name = star.name;\r\n\t\tstring memory story = star.story;\r\n\t\tstring memory cent = getString(\"ra_\", star.cent);\r\n\t\tstring memory dec = getString(\"dec_\", star.dec);\r\n\t\tstring memory mag = getString(\"mag_\", star.mag);\t\t\r\n\t\treturn (name, story, cent, dec, mag);\r\n\t}\r\n\r\n\tfunction getString(string stringToAppend1, string stringToAppend2) private pure returns(string)\r\n\t{\r\n\t\tstring memory s = string(abi.encodePacked(stringToAppend1, stringToAppend2));\r\n\t\treturn s;\r\n\t}\r\n}",
  "sourcePath": "C:\\projects\\BlockChain\\Udacity\\Project-5\\Decentralized-Star-Notary-Project\\contracts\\StarNotary.sol",
  "compiler": {
    "name": "solc",
    "version": "0.4.24+commit.e67f0147.Emscripten.clang"
  },
  "schemaVersion": "2.0.1",
  "updatedAt": "2018-11-05T21:30:54.580Z"
}